11:42:04.766656 IP BP-Linux8.ssh > 192.168.190.130.50019: Flags [P.], seq 2243505564:2243505672, ack 1972915080, win 312, options [nop,nop,TS val 102917262 ecr 377952805], length 108
	0x0000:  4512 00a0 ed8e 4000 4006 99c5 c0a8 731e
	0x0010:  c0a8 be82 0016 c363 85b9 2d9c 7598 4b88
	0x0020:  8018 0138 b384 0000 0101 080a 0622 648e
	0x0030:  1687 1a25 ae15 ed2e 0c2f 724d ce51 edd7
	0x0040:  7d02 fe64 9fe0 4a61 9f85 9b92 25bd 5d15
	0x0050:  3f8a c2ce 11b4 31b1 a9ce 379e a9e1 a0f6
	0x0060:  770c 9e91 fba6 f9b6 9a66 6776 b1ac ceb7
	0x0070:  de8b ae6c cd01 6ab9 ec07 836d 3e04 8404
	0x0080:  f841 fc74 fc9f 4070 a9e0 2021 ecff 230a
	0x0090:  3839 d986 d960 3ae4 768b d58b 8042 546f
